{
  "transactions": [
    {
      "hash": null,
      "transactionType": "CALL",
      "contractName": null,
      "contractAddress": "0xD1EC850713949B6684C0b5873FF0479E3a3F0D74",
      "function": "setWhitelistMethod((string,address,string,string[],string[]))",
      "arguments": [
        "(\"sepolia\", 0x53844F9577C2334e541Aec7Df7174ECe5dF1fCf0, \"balanceOf\", [\"<UA>\"], [\"GT\", \"100000000\"])"
      ],
      "transaction": {
        "type": "0x02",
        "from": "0x8b35465ec613e50b3629cb38fed26bec7765da32",
        "to": "0xd1ec850713949b6684c0b5873ff0479e3a3f0d74",
        "gas": "0x4e456",
        "value": "0x0",
        "data": "0x41b2b1a9000000000000000000000000000000000000000000000000000000000000002000000000000000000000000000000000000000000000000000000000000000a000000000000000000000000053844f9577c2334e541aec7df7174ece5df1fcf000000000000000000000000000000000000000000000000000000000000000e0000000000000000000000000000000000000000000000000000000000000012000000000000000000000000000000000000000000000000000000000000001a000000000000000000000000000000000000000000000000000000000000000077365706f6c696100000000000000000000000000000000000000000000000000000000000000000000000000000000000000000000000000000000000000000962616c616e63654f6600000000000000000000000000000000000000000000000000000000000000000000000000000000000000000000000000000000000001000000000000000000000000000000000000000000000000000000000000002000000000000000000000000000000000000000000000000000000000000000043c55413e000000000000000000000000000000000000000000000000000000000000000000000000000000000000000000000000000000000000000000000002000000000000000000000000000000000000000000000000000000000000004000000000000000000000000000000000000000000000000000000000000000800000000000000000000000000000000000000000000000000000000000000002475400000000000000000000000000000000000000000000000000000000000000000000000000000000000000000000000000000000000000000000000000093130303030303030300000000000000000000000000000000000000000000000",
        "nonce": "0xa",
        "accessList": []
      },
      "additionalContracts": [],
      "isFixedGasLimit": false
    }
  ],
  "receipts": [],
  "libraries": [],
  "pending": [],
  "returns": {},
  "timestamp": 1720344965,
  "chain": 80002,
  "multi": false,
  "commit": "3131ddf"
}