{
  "transactions": [
    {
      "hash": "0xb478a648d88447ea0d0653d6b1df728fa655f0f39760af213ae7885b225b76ee",
      "transactionType": "CALL",
      "contractName": null,
      "contractAddress": "0x5a956fb687fb660550a75260078be19a5b463eb9",
      "function": "setWhitelistMethod((string,address,string,string[],string[]))",
      "arguments": [
        "(\"sepolia\", 0x53844F9577C2334e541Aec7Df7174ECe5dF1fCf0, \"balanceOf\", [\"<UA>\"], [\"GT\", \"100000000\"])"
      ],
      "transaction": {
        "from": "0x8b35465ec613e50b3629cb38fed26bec7765da32",
        "to": "0x5a956fb687fb660550a75260078be19a5b463eb9",
        "gas": "0x4e456",
        "value": "0x0",
        "input": "0x41b2b1a9000000000000000000000000000000000000000000000000000000000000002000000000000000000000000000000000000000000000000000000000000000a000000000000000000000000053844f9577c2334e541aec7df7174ece5df1fcf000000000000000000000000000000000000000000000000000000000000000e0000000000000000000000000000000000000000000000000000000000000012000000000000000000000000000000000000000000000000000000000000001a000000000000000000000000000000000000000000000000000000000000000077365706f6c696100000000000000000000000000000000000000000000000000000000000000000000000000000000000000000000000000000000000000000962616c616e63654f6600000000000000000000000000000000000000000000000000000000000000000000000000000000000000000000000000000000000001000000000000000000000000000000000000000000000000000000000000002000000000000000000000000000000000000000000000000000000000000000043c55413e000000000000000000000000000000000000000000000000000000000000000000000000000000000000000000000000000000000000000000000002000000000000000000000000000000000000000000000000000000000000004000000000000000000000000000000000000000000000000000000000000000800000000000000000000000000000000000000000000000000000000000000002475400000000000000000000000000000000000000000000000000000000000000000000000000000000000000000000000000000000000000000000000000093130303030303030300000000000000000000000000000000000000000000000",
        "nonce": "0xb",
        "chainId": "0x13882"
      },
      "additionalContracts": [],
      "isFixedGasLimit": false
    }
  ],
  "receipts": [
    {
      "status": "0x1",
      "cumulativeGasUsed": "0x38aac",
      "logs": [
        {
          "address": "0x0000000000000000000000000000000000001010",
          "topics": [
            "0x4dfe1bbbcf077ddc3e01291eea2d5c70c2b422b415d95645b9adcfd678cb1d63",
            "0x0000000000000000000000000000000000000000000000000000000000001010",
            "0x0000000000000000000000008b35465ec613e50b3629cb38fed26bec7765da32",
            "0x000000000000000000000000ac75d6efec891724b88b916b36e2ef38bcbec73f"
          ],
          "data": "0x000000000000000000000000000000000000000000000000018bd07a69ac14d80000000000000000000000000000000000000000000000035befcde10e233d84000000000000000000000000000000000000000000000193e0e296df3761ec2f0000000000000000000000000000000000000000000000035a63fd66a47728ac000000000000000000000000000000000000000000000193e26e6759a10e0107",
          "blockHash": "0xe2ccdb2f2ad4f1b7f52ae2447dadbdea9e4b11f9789e40c55a09284f18d49202",
          "blockNumber": "0x8c0fb3",
          "transactionHash": "0xb478a648d88447ea0d0653d6b1df728fa655f0f39760af213ae7885b225b76ee",
          "transactionIndex": "0x0",
          "logIndex": "0x0",
          "removed": false
        }
      ],
      "logsBloom": "0x00000000000000000000000000000000000000000000000000000000000000000000000000000000000000000000000000008000000000000000000000000000000000000000000000000000000000800000000000000000000100000000000000000000000000000000000000000000000000000000000080000000000000000000000000000000000000000000000000000000000000000000000000000000200008000000080000000000000000000020000000000020000000000000004000000000000000000001000000000000000000000000000000100000000000000000000000000000000000000800000000000000000000000000000000100800",
      "type": "0x2",
      "transactionHash": "0xb478a648d88447ea0d0653d6b1df728fa655f0f39760af213ae7885b225b76ee",
      "transactionIndex": "0x0",
      "blockHash": "0xe2ccdb2f2ad4f1b7f52ae2447dadbdea9e4b11f9789e40c55a09284f18d49202",
      "blockNumber": "0x8c0fb3",
      "gasUsed": "0x38aac",
      "effectiveGasPrice": "0x6fc23abfb1",
      "from": "0x8b35465ec613e50b3629cb38fed26bec7765da32",
      "to": "0x5a956fb687fb660550a75260078be19a5b463eb9",
      "contractAddress": null
    }
  ],
  "libraries": [],
  "pending": [],
  "returns": {},
  "timestamp": 1720346543,
  "chain": 80002,
  "commit": "dd39b76"
}