{
  "transactions": [
    {
      "hash": null,
      "transactionType": "CALL",
      "contractName": null,
      "contractAddress": "0x5a956fb687fb660550a75260078be19a5b463eb9",
      "function": "setWhitelistMethod((string,address,string,string[],string[]))",
      "arguments": [
        "(\"sepolia\", 0xaCB4CBd72244753cE534e333EE07C0214cD0E54D, \"balanceOf\", [\"<UA>\"], [\"GT\", \"100000000\"])"
      ],
      "transaction": {
        "from": "0x8b35465ec613e50b3629cb38fed26bec7765da32",
        "to": "0x5a956fb687fb660550a75260078be19a5b463eb9",
        "gas": "0x48813",
        "value": "0x0",
        "input": "0x41b2b1a9000000000000000000000000000000000000000000000000000000000000002000000000000000000000000000000000000000000000000000000000000000a0000000000000000000000000acb4cbd72244753ce534e333ee07c0214cd0e54d00000000000000000000000000000000000000000000000000000000000000e0000000000000000000000000000000000000000000000000000000000000012000000000000000000000000000000000000000000000000000000000000001a000000000000000000000000000000000000000000000000000000000000000077365706f6c696100000000000000000000000000000000000000000000000000000000000000000000000000000000000000000000000000000000000000000962616c616e63654f6600000000000000000000000000000000000000000000000000000000000000000000000000000000000000000000000000000000000001000000000000000000000000000000000000000000000000000000000000002000000000000000000000000000000000000000000000000000000000000000043c55413e000000000000000000000000000000000000000000000000000000000000000000000000000000000000000000000000000000000000000000000002000000000000000000000000000000000000000000000000000000000000004000000000000000000000000000000000000000000000000000000000000000800000000000000000000000000000000000000000000000000000000000000002475400000000000000000000000000000000000000000000000000000000000000000000000000000000000000000000000000000000000000000000000000093130303030303030300000000000000000000000000000000000000000000000",
        "nonce": "0x1c",
        "chainId": "0x13882"
      },
      "additionalContracts": [],
      "isFixedGasLimit": false
    }
  ],
  "receipts": [],
  "libraries": [],
  "pending": [],
  "returns": {},
  "timestamp": 1720363184,
  "chain": 80002,
  "commit": "bee2f82"
}